{
  "contractName": "DappToken",
  "abi": [
    {
      "constant": true,
      "inputs": [],
      "name": "totalSupply",
      "outputs": [
        {
          "name": "",
          "type": "uint256"
        }
      ],
      "payable": false,
      "stateMutability": "view",
      "type": "function"
    },
    {
      "inputs": [],
      "payable": false,
      "stateMutability": "nonpayable",
      "type": "constructor"
    }
  ],
  "bytecode": "0x608060405234801561001057600080fd5b50620f4240600081905550609e806100296000396000f300608060405260043610603f576000357c0100000000000000000000000000000000000000000000000000000000900463ffffffff16806318160ddd146044575b600080fd5b348015604f57600080fd5b506056606c565b6040518082815260200191505060405180910390f35b600054815600a165627a7a72305820f518dc7b3cedb0b8ba89802f66dcec9dc1204abf690ddba203a32c33f26a5daf0029",
  "source": "pragma solidity ^0.4.2;\n\ncontract DappToken {\n\t// constructor\n\t// set the total num,ber of tokens\n\t// read the total number of tokens\n\tuint256 public totalSupply;\n\t\n\tfunction DappToken() public {\n\t\ttotalSupply = 1000000;\n\n\t}\n}",
  "sourcePath": "/home/emusk/rohith/code/codeYourOwnCryptocurrencyOnEthereum/token_sale/contracts/DappToken.sol",
  "compiler": {
    "name": "solc",
    "version": "0.4.24+commit.e67f0147.Emscripten.clang"
  },
  "schemaVersion": "2.0.1",
  "updatedAt": "2018-09-07T11:08:46.753Z"
}